:100000000C94080F0C94320F0C94320F0C94320F96
:100010000C94320F0C94320F0C94320F0C94320F5C
:100020000C94320F0C94320F0C94DB8B0C94588C84
:100030000C94320F0C94320F0C94320F0C94320F3C
:100040000C94320F0C940D4B0C94320F0C94320F15
:100050000C94320F0C94320F0C94994B0C943A8BF5
:100060000C94320F0C94320F0C94320F0C94320F0C
:100070000C94320F0C94320F0C94320F0C94320FFC
:100080000C94320F0C94320F0C94320F0C94320FEC
:100090000C94320F0C94320F07684B664B664B661C
:1000A0004B664B664B664B664B664B664B664B66C8
:1000B0004B664B664B664B664B664B664B664B66B8
:1000C0004B664B664B66B067C0678F677F67156787
:1000D00021676566A06757676367D067E0677C66DE
:1000E0005166F06748674B6673673C6730674B66DD
:1000F0004B664B66E966FA6606674B664B664B666F
:100100004B664B664B66B067C0678F677F67156746
:1001100021676566A06757676367D067E0677C669D
:100120005166F06748674B6673673C6730674B669C
:100130004B664B66E966FA6606679988C588E78864
:10014000E788E788E788E788E788E788E788E78837
:10015000E788E788E788DD88D588CD88E788E7885D
:10016000E788E788E788E788E788BF88A588AD88BB
:10017000B788084AD73B3BCE016E84BCBFFDC12F78
:100180003D6C74319ABD56833DDA3D00C77F11BE88
:10019000D9E4BB4C3E916BAAAABE000000803F058B
:1001A000A84CCDB2D44EB93836A9020C50B99186BC
:1001B00088083CA6AAAA2ABE000000803F004E4143
:1001C0004E494E495459494E46CDCCCC3D0AD723D1
:1001D0003C17B7D13877CC2B329595E6241FB14F19
:1001E0000A000020410000C84200401C4620BCBE5E
:1001F0004CCA1B0E5AAEC59D7454657374696E6704
:1002000020666174616C206572726F720057617450
:100210006368646F672066656174757265207761D5
:1002200073206E6F7420636F6D70696C65642069F4
:100230006E746F20746869732076657273696F6E6F
:10024000210020746F200053657420766F6C756DEB
:10025000657472696320657874727573696F6E2056
:10026000666F7220657874727564657220004469E7
:100270007361626C656420766F6C756D657472690C
:100280006320657874727573696F6E20666F722073
:100290006578747275646572200020505245484537
:1002A000415400205A533A002059533A0058533AC7
:1002B00000505245484541543A310050415553454C
:1002C00053544F503A3100544F47474C455F4C49C7
:1002D000474854533A3000534F4654574152455FB4
:1002E000504F5745523A30005A5F50524F42453AAC
:1002F00030004155544F4C4556454C3A3000454529
:1003000050524F4D3A31004155544F5245504F5283
:10031000545F54454D503A310050524F4752455367
:10032000533A300050696E2063616E206E6F742006
:10033000626520736574206279204D34322C206907
:100340007320696E2073656E7369746976652070B9
:10035000696E73212000496C6C6567616C205320C5
:1003600076616C756520666F72204D343200205ABC
:100370005F4F46465345543A0020595F4F46465317
:1003800045543A00585F4F46465345543A0052652B
:100390006C617469766520706F736974696F6E69DA
:1003A0006E67004162736F6C75746520706F73695E
:1003B00074696F6E696E67002044303A0000011C5A
:1003C0001D132FFF1E1F1214FF20211124FFFFFFFA
:1003D0000F0E22230D01001A4175746F726574723D
:1003E0006163743A00436F6C64206578747275734E
:1003F000696F6E20646973616C6C6F77656400432C
:100400006F6C6420657874727573696F6E20616CAF
:100410006C6F776564005072696E7465724D6F64BD
:10042000653A434E43005072696E7465724D6F6455
:10043000653A4C61736572005072696E7465724DF5
:100440006F64653A46464600457874722E00436FE5
:100450006E6669673A0052657472616374696F6EA3
:1004600020756E646F2073706565640045787472E2
:100470006120657874727573696F6E206F6E207578
:100480006E646F2072657472616374205B6D6D5D64
:100490000052657472616374696F6E207A2D6C69A5
:1004A0006674205B6D6D5D00526574726163746982
:1004B0006F6E207370656564205B6D6D2F735D00DA
:1004C00052657472616374696F6E206C656E6774D7
:1004D00068205B6D6D5D00456E61626C65207265C4
:1004E0007472616374696F6E20636F6E7665727388
:1004F000696F6E205B302F315D004F6E652068653F
:1005000061746572207365656D73206465636F75D2
:10051000706C65642066726F6D20746865726D69B9
:1005200073746F72202D2064697361626C696E67E9
:1005300020616C6C20666F7220736166657479212E
:1005400000507265686561742074656D702E205B63
:10055000B0435D00657874727564657220636F6F77
:100560006C6572207370656564205B302D323535A3
:100570005D0064697374616E636520746F207265D9
:100580007472616374207768656E20686561746950
:100590006E67205B6D6D5D0074656D702E20666FFB
:1005A000722072657472616374696F6E207768651A
:1005B0006E2068656174696E67205B435D007465D9
:1005C0006D702E2073746162696C697A652074693C
:1005D0006D65205B735D005A2D6F666673657420D0
:1005E0005B73746570735D00592D6F666673657417
:1005F000205B73746570735D00582D6F666673655C
:1006000074205B73746570735D00504944206D61A4
:10061000782076616C7565205B302D3235355D0054
:1006200050494420442D6761696E00504944204977
:100630002D6761696E0050494420502D6761696ED5
:100640002F646561642D74696D65005049442064B0
:1006500072697665206D696E005049442064726944
:100660007665206D61780068656174206D616E61EA
:10067000676572205B302D335D00616363656C6577
:10068000726174696F6E205B6D6D2F735E325D00F9
:100690007374617274206665656472617465205B51
:1006A0006D6D2F735D006D61782E206665656472D7
:1006B000617465205B6D6D2F735D0073746570737D
:1006C00020706572206D6D005A2D617869732074F9
:1006D000726176656C20616363656C6572617469D3
:1006E0006F6E205B6D6D2F735E325D00592D6178EA
:1006F00069732074726176656C20616363656C65F3
:10070000726174696F6E205B6D6D2F735E325D0078
:10071000582D617869732074726176656C2061630D
:1007200063656C65726174696F6E205B6D6D2F73AC
:100730005E325D005A2D6178697320616363656C78
:1007400065726174696F6E205B6D6D2F735E325DD3
:1007500000592D6178697320616363656C6572610E
:1007600074696F6E205B6D6D2F735E325D00582D66
:100770006178697320616363656C65726174696F28
:100780006E205B6D6D2F735E325D005A2D6178694E
:100790007320686F6D696E67206665656472617449
:1007A00065205B6D6D2F735D00592D617869732035
:1007B000686F6D696E672066656564726174652037
:1007C0005B6D6D2F735D00582D6178697320686FC4
:1007D0006D696E67206665656472617465205B6D26
:1007E0006D2F735D005A2D61786973206D61782ECD
:1007F000206665656472617465205B6D6D2F735D45
:1008000000592D61786973206D61782E20666565C9
:100810006472617465205B6D6D2F735D00582D618E
:10082000786973206D61782E2066656564726174E5
:1008300065205B6D6D2F735D005A2D6178697320A3
:10084000737465707320706572206D6D00592D6131
:1008500078697320737465707320706572206D6D94
:1008600000582D617869732073746570732070650A
:1008700072206D6D004D61782E205A2D6A65726B65
:10088000205B6D6D2F735D004D61782E206A65725F
:100890006B205B6D6D2F735D005A206D6178206C4D
:1008A000656E677468205B6D6D5D0059206D6178C1
:1008B000206C656E677468205B6D6D5D0058206DFF
:1008C0006178206C656E677468205B6D6D5D005AA1
:1008D000206D696E20706F73205B6D6D5D00592017
:1008E0006D696E20706F73205B6D6D5D0058206DBB
:1008F000696E20706F73205B6D6D5D0053746F7057
:100900002073746570706572206166746572206909
:100910006E6163746976697479205B6D732C303D08
:100920006F66665D004D61782E20696E6163746943
:1009300076652074696D65205B6D732C303D6F6644
:10094000665D005072696E746572206163746976C9
:1009500065205B735D0046696C616D656E74207027
:1009600072696E746564205B6D5D004C616E6775C5
:10097000616765004261756472617465004550523B
:100980003A3320004550523A3220004550523A3115
:1009900020004550523A30200050726F746F636FE0
:1009A0006C2076657273696F6E206368616E67652F
:1009B000642C20757067726164696E6700436F6EA6
:1009C00066696775726174696F6E207265736574AC
:1009D00020746F2064656661756C74732E00436FBC
:1009E0006E66696775726174696F6E206C6F6164A1
:1009F00065642066726F6D20454550524F4D2E0044
:100A0000436F6E66696775726174696F6E20737487
:100A10006F72656420746F20454550524F4D2E0013
:100A2000436F6174696E6720746869636B6E657388
:100A300073205B6D6D5D0077616974005072696E43
:100A40007465722073657420696E746F20647279A6
:100A50002072756E206D6F646520756E74696C20F0
:100A60007265737461727421003A20776F726B69DA
:100A70006E67003A2074656D702073656E736F72D7
:100A80002064656665637400657874727564657268
:100A90002000504944204175746F74756E6520665E
:100AA000696E6973686564202120506C61636520FC
:100AB000746865204B702C204B6920616E64204B5C
:100AC0006420636F6E7374616E747320696E20743A
:100AD000686520436F6E66696775726174696F6ED1
:100AE0002E68206F7220454550524F4D00504944AA
:100AF000204175746F74756E65206661696C6564FC
:100B0000212074696D656F757400504944204175EA
:100B1000746F74756E65206661696C65642120541C
:100B2000656D706572617475726520746F6F206891
:100B300069676800204B643A2000204B693A200026
:100B4000204B703A2000205479726575732D4C79D2
:100B500062656E20504944002050657373656E20B5
:100B6000496E74656772616C2052756C65205049DE
:100B70004400204E6F204F76657273686F6F74204B
:100B80005049440020536F6D65204F76657273683D
:100B90006F6F74205049440020436C617373696324
:100BA00020504944002054753A2000204B753A20CB
:100BB00000206D61783A2000206D696E3A20002097
:100BC000643A200020626961733A20005049442051
:100BD0004175746F74756E6520737461727400541E
:100BE00061726765744578747200205A4A65726B49
:100BF0003A004A65726B3A007A5F6D696E3A007925
:100C00005F6D696E3A00785F6D696E3A004C200046
:100C1000482000206973200020746F200053657401
:100C2000206F75747075743A2000496E76616C6936
:100C3000642061726300206D696E0020686F7572B8
:100C4000732000206461797320006D200050726968
:100C50006E74696E672074696D653A005072696ED2
:100C60007465642066696C616D656E743A004661F6
:100C70006E73706565643A00466C6F774D756C7481
:100C800069706C793A0053706565644D756C746970
:100C9000706C793A00666174616C3A00202F003AFA
:100CA00000205241570020403A00543A0020453A73
:100CB00000205A3A0020593A00583A0046726565B9
:100CC0002052414D3A00556E6B6E6F776E20636F08
:100CD0006D6D616E643A00536F6674776172652062
:100CE0005265736574005761746368646F6720525E
:100CF000657365740042726F776E206F7574205251
:100D0000657365740045787465726E616C20526518
:100D100073657400506F77657255700073746172FB
:100D20007400736B6970200020676F742000457237
:100D3000726F723A6578706563746564206C696E71
:100D4000652000204F00204C00204B002042002056
:100D50004100204800204300204400205200204A47
:100D6000002049002050002053002046002045006C
:100D7000205A00205900205800466F726D6174207F
:100D80006572726F720057726F6E67206368656379
:100D90006B73756D006F6B20004361703A004563A3
:100DA000686F3A00526573656E643A00496E666F0B
:100DB0003A004572726F723A00494E46004E414EFB
:100DC000006F6B004649524D574152455F4E414DB1
:100DD000453A52657065746965725F312E302E3305
:100DE00020434F4D50494C45443A4F6374203237AD
:100DF0002032303139204649524D574152455F55D6
:100E0000524C3A68747470733A2F2F67697468751E
:100E1000622E636F6D2F72657065746965722F52F3
:100E2000657065746965722D4669726D776172656A
:100E30002F2050524F544F434F4C5F564552534909
:100E40004F4E3A312E30204D414348494E455F5474
:100E50005950453A4D656E64656C2045585452555D
:100E60004445525F434F554E543A31205245504508
:100E7000544945525F50524F544F434F4C3A330000
:100E80005061726B20706F736974696F6E205A20A5
:100E90007261697365205B6D6D5D005061726B20DE
:100EA000706F736974696F6E2059205B6D6D5D00A2
:100EB0005061726B20706F736974696F6E20582077
:100EC0005B6D6D5D004465746563746564204545C4
:100ED00050524F4D2076657273696F6E3A00656EA1
:100EE0006473746F7073206869743A2000206D61B8
:100EF000726B6564206465636F75706C6564002057
:100F00006D61726B6564206465666563740053652A
:100F10006C65637445787472756465723A004865EF
:100F2000617465722F73656E736F72206572726F74
:100F3000720044697361626C696E6720616C6C2039
:100F4000686561746572732064756520746F2064D0
:100F5000657465637465642073656E736F72206475
:100F600065666563742E00206465672E204300204B
:100F70006D6561737572656420004572726F723AB7
:100F8000436F756C64206E6F7420686F6C6420749E
:100F9000656D70657261747572652000206D7300F7
:100FA00020616674657220004572726F723A5465F2
:100FB0006D702E2072616973656420746F20736C8C
:100FC0006F772E2052697365203D2000004D31322D
:100FD000302053352050350A4D3131372045787453
:100FE00072756465722031001C151C14000000220B
:100FF00043141F1F132E1B313C16E81578152815B6
:10100000000000000000A01494134413C8124C12F6
:1010100000124811DC1018102500F00F2C00A00F52
:101020003300500F3A00000F4300B00E4D00600E29
:101030005800100E6300C00D7000700D7E00200D72
:101040009000D00CA300800CB900300CD200E00B53
:10105000F000900B1101400B3701F00A6301A00A68
:101060009801500AD601000A1E02B0096F026009F9
:10107000D00210094003C008C103700854042008BE
:10108000FC04D007B70580078C0630076807E00628
:10109000550890064E0940064B0AF005320BA00594
:1010A000140C5005D80C00058C0DB004180E60040B
:1010B0008F0E1004F00EC0033A0F7003730F20035D
:1010C000BD0F8002DC0F0802E90FB801F20F6801C2
:1010D000F80F1801FC0FC800FF0F00004800901A1D
:1010E0004800A00F5800000F6C00600E8400C00D77
:1010F000A400200DD000800C1001E00B5801400B23
:10110000C001A00A4C02000A08036009F803C008E5
:1011100028052008B00680075408E006180A400693
:10112000C80BA005300D0005400E6004FC0EC00386
:10113000740F2003BC0F8002E00FE001F40FF000F9
:10114000FB0FC800FC0FA0000400501D7C00D0095C
:10115000A4001009CC008008F40010081C01B80796
:10116000440168076C0128079401E806BC01B80631
:10117000E40188060C026006340238065C02180698
:101180008402F005AC02D805D402B805FC0298052B
:101190002403800574035005C403280514040005C6
:1011A0006404D804B404B0042C058004A4055804D5
:1011B0001C062804940600040C07D803AC07A803F7
:1011C0004C087803EC0848038C092003A40AD002D9
:1011D0001C0BA802AC0C2802FC0C0802C40DB801C0
:1011E000140E9801B40E38012C0FE000540FB80013
:1011F0007C0F8800A40F4800F40F28FFFC0FC0F9F3
:10120000000000008C030800AE035000D603A000CD
:10121000F703F00018044001380490015904E0017C
:101220007A0430029A048002BB04D002FC047003EA
:101230002605C003860630079709A00F750D201CF0
:10124000520E401F1F0F6022FF0F803E0400081D3A
:10125000900058091C01B007A801C80634023006E6
:10126000C002C0054C036805D80318056404D00407
:10127000F00498047C056004080630049406000419
:101280002007D003AC07A80338088003C40858031C
:1012900050093003DC090803680AD802F40AB002D6
:1012A000800B88020C0C6002980C3002240DF801AF
:1012B000B00DC0013C0E8001C80E3001540FB800C3
:1012C000B40F2800E00F00000400401D90006009EA
:1012D0001C01B007A801D00634023806C002C805B8
:1012E0004C036805D80318056404D804F004980476
:1012F0007C05600408063004940600042007D0032F
:10130000AC07A80338088003C40858035009300309
:10131000DC090803680AE002F40AB802800B8802BC
:101320000C0C6002980C3002240DF801B00DC001C5
:101330003C0E8001C80E3001540FB800B40F2800D5
:10134000E00F000004000016D800C006AC017805CC
:101350008002C004540348042804E803FC049803F2
:10136000D0055003A40618037807D8024C08A80239
:1013700020097002F4093802C80A08029C0BD00147
:10138000700C9001440D5001180EF800EC0E88000E
:10139000C00F00000400681D4C00500B9400580959
:1013A000DC0050082401A8076C012807B401C0061E
:1013B000FC017006440228068C02F005D402B80530
:1013C0001C03880564035805AC033005F4031005BD
:1013D0003C04E8048404C804CC04A8041405900464
:1013E0005C057004A4055804EC0538043406200498
:1013F0007C060804C406F0030C07D8035407C8038E
:101400009C07B003E40798032C088003740870035A
:10141000BC085803040948034C0930039409180315
:10142000DC090803240AF0026C0AE002B40AC802CC
:10143000FC0AB002440BA0028C0B8802D40B700291
:101440001C0C5802640C4002AC0C2802F40C100274
:101450003C0DF001840DD801CC0DB801140E98019B
:101460005C0E7001A40E4801EC0E1801340FD80078
:101470007C0F8800C40F0800FC0F00000000000073
:10148000000000000000000000000000000000005C
:10149000000000000000000000000000000000004C
:1014A0000000401F450060094F0010095C00C008A3
:1014B0006B0070087D0020089200D007AC00800708
:1014C000CC003007F400E006230190065E014006E0
:1014D000A601F005FF01A0056D025005F30200050D
:1014E0009603B0045A046004400510044806C00383
:1014F0006E077003A8082003EB09D002230B8002BB
:10150000410C3002390DE001040E9001A20E4001A1
:10151000170FF000690FA000A20F5000C60F0000C7
:10152000DD0FB0FFEB0F60FF0400700DD800480422
:10153000AC0158038002D802540380022804380208
:10154000FC040002D005C801A406980178077001C8
:101550004C08480120091801F409F000C80AC80025
:101560009C0BA000700C7000440D3800180E000099
:10157000EC0EA8FFC00FE8FE0400001B5400600939
:10158000640010097400C008840070089C002008E2
:10159000B800D007D8008007000130072C01E00612
:1015A00068019006AC0140060002F0056802A00543
:1015B000E0025005740300052404B004F004600444
:1015C000DC051004E406C00304087003300920039E
:1015D000780B8002600DE001A80E4001680FA000AA
:1015E000C00F0000E80F60FF0400801AD8009808C0
:1015F000AC012007800250065403C8052804580592
:10160000FC040005D005B004A4066804780728048B
:101610004C08E8032009B003F4097003C80A380332
:101620009C0BF802700CB002440D6802180E080200
:10163000EC0E8801C00F8800F00F00000000A00F22
:101640005C006009690010097900C0088C0070080E
:10165000A2002008BD00D007DE008007050130078A
:101660003401E0066D019006B20140060702F00564
:101670006D02A005E80250057B0300052B04B004B1
:10168000F8046004EB06C003350920037F0B8002D9
:10169000650DE001B00E40011D0FF000480FC800BD
:1016A0006C0FA000ED0F60FFFE0F48FE0100000070
:1016B0000000000000000000000000000024F4030F
:1016C000D950C38EB1C2A23D96828B3582127AE385
:1016D00072816CCB66A861015DC758EB54615120E3
:1016E0004E1E4B5648C14559431A41013F093D2FF3
:1016F0003B7139CD374036C93465331432D430A309
:101700002F802E6B2D632C672B752A8E29B028DC39
:101710002710274B268F25D9242B248223E0224310
:1017200022AC211A218D200420801F001F841E0C52
:101730001E971D261DB81C4E1CE61B821B201BC1BC
:101740001A641A0A1AB2195D190A19B9186A181C0A
:1017500018D11788174017FA16B51673163116F1F7
:1017600015B31576153A150015C7148F14581422A1
:1017700014EE13BA13881356132513F612C71299D1
:10178000126C1240121512EB11C111981170114810
:10179000112111FB10D610B1108D106910461024C4
:1017A000100210E10FC00FA00F800F610F420F2336
:1017B0000F060FE80ECB0EAF0E930E770E5C0E41A8
:1017C0000E270E0D0EF30DDA0DC10DA80D900D783C
:1017D0000D600D490D320D1B0D050DEF0CD90CC31D
:1017E0000CAE0C990C850C700C5C0C480C350C2163
:1017F0000C0E0CFB0BE80BD60BC40BB20BA00B8E24
:101800000B7D0B6B0B5A0B4A0B390B290B180B0872
:101810000BF80AE90AD90ACA0ABB0AAC0A9D0A8E61
:101820000A800A710A630A550A470A390A2C0A1EF5
:101830000A110A040AF709EA09DD09D009C409B73F
:1018400009AB099F09920987097B096F0963095848
:10185000094C09410936092B09200915090A090013
:1018600009F508EB08E008D608CC08C208B808AEAD
:1018700008A4089A08900887087D0874086B086116
:101880000858084F0846083D0834082C0823081A51
:1018900008120809080108F807F007E807E007D868
:1018A00007D007C807C007B807B007A807A10700F7
:1018B00000420FA1071605D0030D038B022E02E88C
:1018C00001B2018601630145012C0117010401F4F5
:1018D000005265717565737453746F703A004D6191
:1018E0007854656D703A004469616D657465723A4B
:1018F00000416363656C65726174696F6E3A004D97
:10190000617853706565643A004A65726B3A004DC0
:10191000617842656454656D703A005072696E7406
:101920006572547970653A43617274657369616E6A
:10193000005A54726176656C416363656C3A005974
:1019400054726176656C416363656C3A00585472F9
:101950006176656C416363656C3A005A5072696EDA
:1019600074416363656C3A00595072696E744163E7
:1019700063656C3A00585072696E74416363656CBC
:101980003A005A53697A653A005953697A653A00C0
:101990005853697A653A005A4D61783A00594D6159
:1019A000783A00584D61783A005A4D696E3A0059BC
:1019B0004D696E3A00584D696E3A00526574726115
:1019C0006374696F6E556E646F53706565643A0039
:1019D00052657472616374696F6E556E646F457899
:1019E0007472614C6F6E674C656E6774683A005232
:1019F000657472616374696F6E556E646F45787457
:101A000072614C656E6774683A0052657472616306
:101A100074696F6E5A4C6966743A005265747261EB
:101A20006374696F6E53706565643A0052657472D1
:101A3000616374696F6E4C6F6E674C656E67746836
:101A40003A0052657472616374696F6E4C656E67BB
:101A500074683A004A65726B5A3A004B656570418A
:101A60006C697665496E74657276616C3A004A6598
:101A7000726B58593A005072696E746C696E6543A6
:101A8000616368653A00454550524F4D3A004175D3
:101A9000746F6C6576656C3A005A50726F62653A85
:101AA00000436173654C69676874733A00537570DD
:101AB000706F72744C6F63616C46696C616D656EBA
:101AC000746368616E67653A00537570706F727405
:101AD0004731304731313A005A486F6D65506F7366
:101AE0003A0059486F6D65506F733A0058486F6DF2
:101AF00065506F733A005A486F6D654469723A00D9
:101B000059486F6D654469723A0058486F6D654475
:101B100069723A00536F667477617265506F7765CA
:101B2000725377697463683A004C43443A004661E3
:101B30006E323A300046616E3A005344436172643B
:101B40003A004865617465644265643A004D69789D
:101B5000696E6745787472756465723A004E756D8A
:101B600045787472756465723A0042617564726199
:101B700074653A004E6F2063617365206C69676815
:101B80007473005A206A65726B2077617320746FDA
:101B90006F206C6F772C2073657474696E67207486
:101BA0006F20005859206A65726B2077617320742A
:101BB0006F6F206C6F772C2073657474696E67206B
:101BC000746F200044656275674C6576656C3A00F9
:101BD000696E666F3A436F6E74696E7565206672E2
:101BE0006F6D20666174616C207374617465002090
:101BF0002D205072696E7465722073746F707065F9
:101C00006420616E64206865617465727320646924
:101C10007361626C65642064756520746F207468FC
:101C20006973206572726F722E2046697820657222
:101C3000726F7220616E64207265737461727420B9
:101C400077697468204D3939392E00436865636BB4
:101C500073756D207265717569726564207768654A
:101C60006E20737769746368696E67206261636B65
:101C700020746F2041534349492070726F746F6321
:101C80006F6C2E00627573793A70726F636573734F
:101C9000696E6700627573793A646F6F72206F7056
:101CA000656E00627573793A68656174696E670084
:101CB000627573793A70617573656420666F72201E
:101CC0007573657220696E746572616374696F6E95
:101CD00000012902290429082910292029402980E6
:101CE00029012C022C012602260426082610262073
:101CF0002640268026402C802C0123022304230822
:101D000023102320234023802301200220042008C5
:101D1000201020202040208020102C202C012F0279
:101D20002F042F082F102F202F402F802F7EFE7E74
:101D3000FD7EFB7EF77EEF7EDF7EBF7E7F000100B3
:101D400000EE1D1200020000AB1D4300030000A7BF
:101D50001D04010309048D1D1802030904751D16D5
:101D600003030904671D0C0C0331003200330034F7
:101D700000350000001603550053004200200053B8
:101D80000065007200690061006C000000180354D7
:101D900000650065006E00730079006400750069DD
:101DA000006E006F000000040309040902430002F2
:101DB0000100C032090400000102020100052400F4
:101DC0001001052401000104240206052406000177
:101DD0000705820308004009040100020A00000010
:101DE00007050302400000070584024000001201BD
:101DF000000202000020C0168304720201020301E7
:101E00000001C102018036018136E562A96BBB8FFA
:101E100011241FBECFEFD0E2DEBFCDBF12E0A0E0A5
:101E2000B1E0EEE0FFE201E00BBF02C007900D92CF
:101E3000A437B107D9F72CE0A4E7B2E001C01D92A6
:101E4000AC36B207E1F71FE0C8E0DFE004C021973D
:101E5000FE010E946694C530D107C9F70E9407872A
:101E60000C9485970C9400008F929F92AF92BF9232
:101E7000CF92DF92EF92FF920F931F93CF93DF9356
:101E8000CDB7DEB7F6016083718382839383F5015A
:101E90002083318342835383F401E082F182028301
:101EA0001383DF91CF911F910F91FF90EF90DF90FF
:101EB000CF90BF90AF909F908F9008958F929F92F8
:101EC000AF92BF92CF92DF92EF92FF920F931F9348
:101ED000CF93DF93CDB7DEB7F60160837183828342
:101EE0009383F5012083318342835383F401E0829D
:101EF000F18202831383DF91CF911F910F91FF90A5
:101F0000EF90DF90CF90BF90AF909F908F9008950B
:101F1000E82FF0E00E94498A8E2F08950C9446899C
:101F20000FB6F8946091530C7091540C8091550C3D
:101F30009091560C0FBE08950E94736080917E02AE
:101F4000882399F010927E020E94DF4280918401E2
:101F5000815080938401811108C080918102811198
:101F60000E949C4285E08093840108958091CC0476
:101F7000882339F080E0E0DF81E090E00E94316B5F
:101F8000F5CF08954F925F926F927F928F929F92BA
:101F9000AF92BF92CF92DF92EF92FF926091860351
:101FA00070918703809188039091890380908A03C0
:101FB00090908B03A0908C03B0908D03C0908E0303
:101FC000D0908F03E0909003F090910320915E03F6
:101FD00030915F0340916003509161030E94D08F64
:101FE0002B013C0120916203309163034091640313
:101FF00050916503C501B4010E94D08F4B015C0173
:102000002091660330916703409168035091690302
:10201000C701B6010E94D08F6B017C018091DC0367
:10202000811105C060E070E080E89FE304C060E7D4
:1020300072E481E29DE3A30192010E943B93AB0114
:10204000BC0122E089EB9CE00E945A258091DC03D0
:10205000811105C060E070E080E89FE304C060E7A4
:1020600072E481E29DE3A50194010E943B93AB01E0
:10207000BC0122E085EB9CE00E945A258091DC03A4
:10208000811105C060E070E080E89FE304C060E774
:1020900072E481E29DE3A70196010E943B93AB01AC
:1020A000BC0123E081EB9CE00E945A2560919E03D5
:1020B00070919F038091A0039091A1030E94389199
:1020C0002091D8033091D9034091DA035091DB037A
:1020D0000E943B939B01AC018091DC03811105C000
:1020E00060E070E080E89FE304C060E772E481E2B2
:1020F0009DE30E943B93AB01BC0124E08DEA9CE090
:10210000FF90EF90DF90CF90BF90AF909F908F9017
:102110007F906F905F904F900C942D25CF93C82F98
:10212000E0917802F091790247A550A961A972A9BE
:1021300022E08AEA9CE00E945A25E0917802F09120
:10214000790243A954A965A976A920E08CE99CE00D
:102150000E945A25E0918301EF3F29F4E091780233
:10216000F0917902E081F0E0EE5BF34F608170E086
:1021700086EA9CE00E947E2480E391E00E9444363F
:10218000682F880F770B1616170624F488EB93E058
:102190000E947E24CC2391F060E070E081EA9CE014
:1021A0000E947E2480913401909135016CEF7FE094
:1021B000681B790B8FE99CE00E947E248DE00E94D1
:1021C00099698AE0CF910C949969CF92DF92EF924E
:1021D000FF92CF93DF93EC0149973CF0C53F81E03C
:1021E000D8072CF0C4EFD1E002C0C9E1D0E0BE01B5
:1021F0000D2E000C880B990B0E9438916B017C010D
:102200006091D8027091D902072E000C880B990BAF
:102210000E9438919B01AC01C701B6010E949D90BC
:102220009B01AC016091DA027091DB028091DC02CB
:102230009091DD020E943B936093DA027093DB027F
:102240008093DC029093DD02D093D902C093D80230
:10225000BE0186E89CE0DF91CF91FF90EF90DF9088
:10226000CF900C942F248F929F92AF92BF92CF92D7
:10227000DF92EF92FF92CF93DF93EC0189319105CA
:1022800034F0893C91052CF0C8ECD0E002C0C9E1E3
:10229000D0E0D093D702C093D602E0917802F091BB
:1022A0007902E958FF4FC080D180E280F38020E0BE
:1022B00030E0A901C701B6010E949690AE010D2E33
:1022C000000C660B770B18165CF0CB01BA010E946C
:1022D00038912AE037ED43E25CE30E943B9324C04F
:1022E000CB01BA010E9438912AE037ED43E25CE36A
:1022F0000E943B9320E030E040E850E40E943B9392
:102300004B015C01A7019601C701B6010E943B93F6
:102310002BED3FE049E450E40E943B939B01AC016C
:10232000C501B4010E949D9060939F017093A0012C
:102330008093A1019093A201BE0188E79CE0DF9108
:10234000CF91FF90EF90DF90CF90BF90AF909F9094
:102350008F900C942F24CF93DF932091560330E07D
:1023600028173907D9F1209158033091590397FD67
:102370000FC0EC018F3F910519F014F0CFEFD0E0C2
:10238000209731F02860309359032093580307C0F9
:10239000277F3093590320935803C0E0D0E08C2F5F
:1023A000C09356039091CC04992311F0662379F0E1
:1023B00090915703911109C0E0EDF4E08283E95850
:1023C000FF4F9CE0E034F907C9F70E94364DBE018B
:1023D0008EE69CE0DF91CF910C942F24DF91CF917A
:1023E00008958F929F92AF92BF92CF92DF92EF9219
:1023F000FF92CF93DF9300D000D0CDB7DEB72FE6AA
:1024000032E143E85AE36091B4027091B5028091E1
:10241000B6029091B7020E943B936B017C0144E0AD
:1024200050E061E870E0CE0101960E944497298156
:102430003A814B815C81C701B6010E94D08FAB010C
:10244000BC0122E08CE59CE00E945A258AE49CE0D5
:102450000E946823E0910501F091060120E030E040
:1024600040E751E462857385848595850E94999241
:102470001816B4F455DDC090B802D090B902E090BF
:10248000BA02F090BB026C197D098E099F0928EEF3
:1024900033E040E050E00E94289469017A0103C0D3
:1024A000C12CD12C76018DE790E00E945C97C60E7E
:1024B000D71EE81EF91EC701B60120E831E541E04C
:1024C00050E00E944A9460E87EEA8EEF9FEF0E94FF
:1024D0000594C60ED71EE81EF91EBA01A9018DE4A7
:1024E0009CE00E944B24C701B60120E13EE040E0A1
:1024F00050E00E944A9449015A01BA01A90183E4BB
:102500009CE00E944B24A0EFB1EFA50194010E9432
:1025100081946C0D7D1D8E1D9F1D2CE330E040E0ED
:1025200050E00E944A94BA01A9018BE39CE00E940A
:102530004B2486E39CE00E9477230F900F900F902E
:102540000F90DF91CF91FF90EF90DF90CF90BF90F1
:10255000AF909F908F90089508952F923F924F9241
:102560005F926F927F928F929F92AF92BF92CF9223
:10257000DF92EF92FF920F931F93CF93DF93CDB72C
:10258000DEB7A8970FB6F894DEBF0FBECDBF8C01A3
:102590008091860390918703A0918803B09189036D
:1025A000898B9A8BAB8BBC8B80918A0390918B0328
:1025B000A0918C03B0918D038D8B9E8BAF8BB88FC8
:1025C00080918E0390918F03A0919003B09191031D
:1025D000898F9A8FAB8FBC8FC8010E94C954882302
:1025E00009F45BC1D80112963C90129730FE07C0E7
:1025F0009696CD90DD90ED90FC90999703C0C12CFC
:10260000D12C76012090DC03222051F023E333E328
:102610004BEC51E4C701B6010E943B936B017C0176
:10262000CD8EDE8EEF8EF8A231FE06C0F80182A4B8
:1026300093A4A4A4B5A403C0812C912C54012220FE
:1026400051F023E333E34BEC51E4C501B4010E94A4
:102650003B934B015C0189A29AA2ABA2BCA2409021
:1026600086035090870360908803709089034982A5
:102670005A826B827C8280918A0390918B03A09115
:102680008C03B0918D038DA39EA3AFA3B8A78D83B8
:102690009E83AF83B88780918E0390918F03A09122
:1026A0009003B091910389879A87AB87BC8760912B
:1026B00076037091770380917803909179030E945B
:1026C00038912091D8033091D9034091DA03509189
:1026D000DB030E943B936D877E878F87988B32FE4A
:1026E000BEC0D8019E968D909D90AD90BC90D19724
:1026F000222051F023E333E34BEC51E4C501B40154
:102700000E943B934B015C0129893A894B895C8982
:10271000C301B2010E94CF8F2B013C012D893E895C
:102720004F89588D6DA17EA18FA198A50E94CF8F52
:102730006DA37EA38FA398A720E030E040E850E48B
:10274000C501B4010E943B93A50194010E943B93F3
:102750006B017C01A3019201C301B2010E943B9372
:102760009B01AC01C701B6010E94CF8F6B017C01B8
:102770002DA13EA14FA158A5CA01B9010E943B93CA
:102780009B01AC01C701B6010E94CF8F0E94A893A4
:102790006B017C012DA13EA14FA158A5C301B2013F
:1027A0000E94A6929B01AC01C701B60190580E94FD
:1027B0009D906B017C019B01AC010E94E9938823F1
:1027C00029F08AE29CE00E94972367C0F801808587
:1027D0009185039721F4F7FAF094F7F8F09420E04C
:1027E00030E0A901C501B4010E94969087FF08C09E
:1027F000F7FAF094F7F8F094B7FAB094B7F8B09409
:102800002DA13EA14FA158A5C701B6010E943B933F
:102810009B01AC01C301B2010E94CF8F20E030E0E8
:1028200040E05FE30E943B936D8F7E8F8F8F98A374
:10283000A3019201C701B6010E943B932DA13EA1C5
:102840004FA158A50E94D08F20E030E040E05FE328
:102850000E943B9369A37AA38BA39CA308C0A50104
:102860009401C701B6010E94A6924B015C01EE24BF
:10287000E394D80118968D919C911997029709F0CD
:10288000E12C95018401AE01435E5F4FBE016F5F95
:102890007F4FCE0141960E940380A8960FB6F89410
:1028A000DEBF0FBECDBFDF91CF911F910F91FF9083
:1028B000EF90DF90CF90BF90AF909F908F907F90E0
:1028C0006F905F904F903F902F9008954F925F923E
:1028D0006F927F928F929F92AF92BF92CF92DF9230
:1028E000EF92FF920F931F93CF93DF93EC018885B4
:1028F00099858B30910509F482C080F4843091056C
:1029000018F4029738F144C08430910509F443C0AB
:102910000A9709F074C140E061E073C08C31910501
:1029200009F47AC050F48431910509F471C04597D7
:1029300009F065C11092DC036DC18B35910509F476
:10294000A8C08C35910509F4B2C08A35910509F00B
:1029500056C194C08881998192FF0FC04E8D5F8DC2
:1029600068A179A180915C03452B462B472B11F080
:10297000806201C08F7D80935C03CE010E94C954A8
:10298000882309F447C161E080E00E94707C42C165
:10299000CE01E3DD3FC1EADA8881998193FF05C06A
:1029A000CAA0DBA0ECA0FDA003C0C12CD12C7601F5
:1029B00092FF0AC02E8D3F8D48A159A1A8EEB3E029
:1029C0000E9475946B017C01ABDAC60ED71EE81E1F
:1029D000F91EA6DAA7019601261B370B480B590BE7
:1029E000DA01C90181159449A543B74708F012C11E
:1029F00081E090E00E94316B81E09EDAEACF40E016
:102A000060E080917802909179020E947B4802C137
:102A100081E08093DC03FEC0888199819C01287746
:102A2000332786FF08C010929E0310929F031092D6
:102A3000A0031092A103232BD9F09C012873332704
:102A4000232B09F4E7C0AC0125E0569547952A955C
:102A5000E1F74170BC0134E0769567953A95E1F76E
:102A6000617053E0969587955A95E1F7817003C0A0
:102A700061E041E081E00E94655FCCC01092A30359
:102A8000CB5ADF4F8881882309F4C4C083EA93E0DE
:102A90000BC081E08093A303CB5ADF4F888188234A
:102AA00009F4B8C08EE893E00E948D23B3C08090F3
:102AB0005E0390905F03A0906003B090610340902C
:102AC0006203509063036090640370906503C0904C
:102AD0006603D0906703E0906803F0906903188163
:102AE00013FF1AC06A857B858C859D852091DC0348
:102AF000222331F023E333E34BEC51E40E943B9378
:102B00002091860330918703409188035091890377
:102B10000E94CF8F4B015C0114FF1AC06E857F8528
:102B2000888999892091DC03222331F023E333E360
:102B30004BEC51E40E943B9320918A0330918B032C
:102B400040918C0350918D030E94CF8F2B013C014B
:102B500015FF1AC06A897B898C899D892091DC03C5
:102B6000222331F023E333E34BEC51E40E943B9307
:102B700020918E0330918F034091900350919103E7
:102B80000E94CF8F6B017C0187017601A301920126
:102B9000C501B4010E94B1520881198106FF2AC003
:102BA0006E897F89888D998D2091DC03222331F0F5
:102BB00023E333E34BEC51E40E943B932091ED017E
:102BC0003091EE014091EF015091F0010E943B9352
:102BD0000E94059160939E0370939F038093A003CE
:102BE0009093A103609376037093770380937803A7
:102BF0009093790308731127012B31F50BC0809155
:102C0000A40182FF07C086EC9CE00E946823CE01ED
:102C10000E94C76985D960934C0C70934D0C8093CA
:102C20004E0C90934F0CDF91CF911F910F91FF901D
:102C3000EF90DF90CF90BF90AF909F908F907F905C
:102C40006F905F904F90089540915E0350915F03A5
:102C5000609160037091610323E084E893E00E9437
:102C60005A2540916203509163036091640370910F
:102C7000650323E089E793E00E945A2540916603AB
:102C800050916703609168037091690323E08EE6B9
:102C900093E00E942D25BECF4F925F926F927F925C
:102CA0008F929F92AF92BF92CF92DF92EF92FF925C
:102CB0000F931F93CF93DF93FC01268137812E3C26
:102CC000310509F409C7EC012F3C310508F0B0C00B
:102CD0002D36310509F499C308F04EC0233531056E
:102CE00009F406C218F52A32310509F48BC180F4C3
:102CF0002330310510F40C9448212630310510F4AE
:102D00000C94BE222231310509F4F7C10C944821FC
:102D10002035310510F40C9448212235310510F48A
:102D20000C94BE221092A2030C94BE2223363105CD
:102D300009F4BFC260F42535310509F449C208F42D
:102D40001CC22C35310509F463C20C944821293684
:102D5000310509F43EC330F42836310509F4EDC2DB
:102D60000C9448212A36310509F405C42B36310567
:102D700009F429C40C9448212B39310509F4DCC32A
:102D800008F52437310509F427C160F422373105ED
:102D900009F481C408F052C42F36310509F425C462
:102DA0000C9448212737310509F4BAC42C38310571
:102DB00011F40C94BE222537310511F00C944821F2
:102DC0000C94BE22293C310509F456C570F42E3B03
:102DD000310509F4A5C3283C310509F4FFC42A3A9A
:102DE000310511F00C944821B5C42B3C310509F490
:102DF000C8C508F48CC52C3C310509F427C62D3C08
:102E0000310511F00C94482110920401DF91CF910B
:102E10001F910F91FF90EF90DF90CF90BF90AF90F8
:102E20009F908F907F906F905F904F900C94EC33B9
:102E3000223CF1E03F0711F40C94F01F08F06DC044
:102E4000223251E0350709F492C710F52C3D3105C7
:102E500009F442C770F4213D310509F4A8C62A3DA2
:102E6000310509F4C2C62F3C310511F00C944821FC
:102E700047C6223E310509F46DC72931E1E03E071E
:102E800009F472C72D3D310511F00C94482143C758
:102E90002336F1E03F0711F40C94671F88F42F32BA
:102EA00051E0350709F4D7C72E3581E0380711F412
:102EB0000C94BE222E32314009F4BDC70C94482137
:102EC0002039F1E03F0711F40C94991FC8F428361B
:102ED000314011F00C94482110920401DF91CF9100
:102EE0001F910F91FF90EF90DF90CF90BF90AF9028
:102EF0009F908F907F906F905F904F900C9479602F
:102F0000213981E0380711F40C94AB1F223931408C
:102F100011F40C94BD1F0C9448212331F2E03F07BB
:102F200011F40C946A2038F5243F51E0350711F470
:102F30000C94022080F4243CE1E03E0711F40C9450
:102F4000F01F10F40C94EC1F253C314011F40C944C
:102F5000F01F0C944821263F51E0350711F40C94E2
:102F6000252010F40C9418202231324011F40C94D6
:102F700036200C9448212E39F2E03F0711F40C94CE
:102F8000FF2098F42B3152E0350711F40C94C72040
:102F9000293582E0380711F40C94F02024313240B6
:102FA00011F00C9448210C947720263EF3E03F0763
:102FB00011F40C94BE2248F42B58334024303105D0
:102FC00010F40C94BE220C944821273E334011F497
:102FD0000C941E210C9448218091050190910601CA
:102FE000DF91CF911F910F91FF90EF90DF90CF90E5
:102FF000BF90AF909F908F907F906F905F904F9019
:103000000C9402362081318133FD02C00C94BE2223
:10301000F2A00F2D13A1EDEBF3E048ED53E04E17B6
:103020005F0739F0849190E0319608171907B9F7D6
:103030004BC017FD49C032FF25C08E8D9F8DA8A1C2
:10304000B9A18F3F9105A105B10509F0C0F48F2DFD
:103050000E9477888E8D9F8DF801FF27082E0E9491
:103060004D89BC018F2D0E948888B8018DE19CE0BC
:103070000E947E246E8D7F8D88E19CE013C086E5E2
:1030800093E024C08F2D0E941D89B80188E19CE047
:103090000E947E24F801FF270E94498ABF017727FA
:1030A00083E19CE0DF91CF911F910F91FF90EF9012
:1030B000DF90CF90BF90AF909F908F907F906F9058
:1030C0005F904F900C942F2484E293E0DF91CF9196
:1030D0001F910F91FF90EF90DF90CF90BF90AF9036
:1030E0009F908F907F906F905F904F900C9497235C
:1030F00081E08093A2030C94BE220E94B60F8881C7
:1031000083FF03C0779A81E001C080E0988194FF3B
:1031100002C0769A81E0988195FF02C0479A81E0CB
:10312000988196FF12C0DF91CF911F910F91FF9070
:10313000EF90DF90CF90BF90AF909F908F907F9057
:103140006F905F904F900C94903C81110C94BE2234
:10315000779A769A479ADF91CF911F910F91FF90BE
:10316000EF90DF90CF90BF90AF909F908F907F9027
:103170006F905F904F900C949D3C8081918192FF65
:1031800012C0268D378D40A151A1A8EEB3E00E9458
:10319000759460930F0270931002809311029093C4
:1031A00012020C94BE220E94B60F81E0DF91CF91F3
:1031B0001F910F91FF90EF90DF90CF90BF90AF9055
:1031C0009F908F907F906F905F904F900C94774D71
:1031D0008081918192FF12C0268D378D40A151A12F
:1031E000A8EEB3E00E9475946093480C7093490C6C
:1031F00080934A0C90934B0C0C94BE221092480C76
:103200001092490C10924A0C10924B0C0C94BE2256
:10321000808183FF0CC0428553856485758540930A
:10322000E1015093E2016093E3017093E40184FFB4
:103230000CC04E855F85688979894093E50150937C
:10324000E6016093E7017093E80185FF0CC08A896D
:103250009B89AC89BD898093E9019093EA01A09391
:10326000EB01B093EC010E94BB4D888186FD02C04A
:103270000C94BE22E0917802F09179028E899F89A8
:10328000A88DB98D85879687A787B08B8081DF91C0
:10329000CF911F910F91FF90EF90DF90CF90BF9053
:1032A000AF909F908F907F906F905F904F900C9415
:1032B000FC360190F081E02DF2FF0BC02E8D3F8D8A
:1032C00048A159A1A8EEB3E00E9475946B017C015E
:1032D00006C030E1C32E37E2D32EE12CF12CE3FD02
:1032E000779A888184FD769A888185FD479A0E9425
:1032F000900FC60ED71EE81EF91E0E94900FA70160
:103300009601261B370B480B590BDA01C901803A8D
:103310009648A140B10518F40E94E059EECF88818B
:1033200083FD7798888184FD7698888185FD02C029
:103330000C94BE2247980C94BE220E949F42182FE4
:1033400081110C94BE220E94900F60934C0C7093DC
:103350004D0C80934E0C90934F0C8091A40183FFF1
:1033600002C00C94BE228881998193FDADC792FF63
:1033700009C08E8D9F8DA8A1B9A1892B8A2B8B2B7B
:1033800009F4A2C788819981EA80FB8092FF0DC071
:103390009C012227317091FF9AC7FE01EC5AFF4F22
:1033A0008081882309F4E4C792C7E5FC02C00C942D
:1033B000BE22EE2444E0F4229C012227317091FFCA
:1033C000A5C7FE01EC5AFF4F8081882309F4EAC7A4
:1033D0009DC7109204018081918123E09695879585
:1033E0002A95E1F78170DF91CF911F910F91FF90A6
:1033F000EF90DF90CF90BF90AF909F908F907F9095
:103400006F905F904F900C948E100E949F42182FE7
:1034100081110C94BE220E94900F60934C0C70930B
:103420004D0C80934E0C90934F0C8091A40183FF20
:1034300002C00C94BE220E94B60FE0907802F09079
:1034400079028881998191FF0AC0FE01EC5AFF4FF1
:103450002081211104C007E0E02E01E0F02ECA8097
:10346000DB8092FF2BC090FF0DC011E020E030E028
:10347000A9016A8D7B8D8C8D9D8D0E949992181665
:103480000CF010E0F701F0806E8D7F8D88A199A17E
:103490000E9438919B01AC01D2FE07C0C25BDF4F96
:1034A000688179818A819B8103C060E070E0CB01F3
:1034B0000E94D08F01E0212F4F2D30C0C5FE30C0BB
:1034C00090FF0DC011E020E030E0A9016A8D7B8DF6
:1034D0008C8D9D8D0E94999218160CF010E0F701CA
:1034E000B080E159FF4F60817181072E000C880B7D
:1034F000990B0E9438919B01AC01D2FE07C0C25BC0
:10350000DF4F688179818A819B8103C060E070E030
:10351000CB010E94D08F01E0212F4B2D0E94F23869
:103520000E94900F60934C0C70934D0C80934E0C46
:1035300090934F0C0C94BE222081318180915A03CC
:1035400032FF0AC0468D578D60A171A1452B462BD5
:10355000472B11F40C94BB22806180935A030E9484
:10356000900F6093320370933303809334039093EE
:1035700035030C94BE22828180FF12C020E030E02F
:10358000A90166A177A180A591A50E94969090912E
:103590005B03882311F0986001C0977F90935B03D1
:1035A00080915B0383FDEAC78881998193FF27C7D8
:1035B0004AA15BA16CA17DA1413051056105710556
:1035C00009F01DC7DBC780915B0383FDD7C78081EE
:1035D000918193FF1DC782A193A1A4A1B5A10197D9
:1035E000A105B10509F014C7C9C78081918192FF77
:1035F00003C0868D0E94244D8881998193FF11C05C
:103600008AA19BA1ACA1BDA12091A4011816190605
:103610001A061B0614F4822B02C0815082230E94DA
:10362000244D8091A40183FFA9C700E020E040E081
:1036300060E070E0CB010E94F238A0C71092040154
:1036400084EC9DE00E94772389E193E00E94792336
:1036500087E093E00E9479238EEF92E00E94792325
:1036600082EF92E00E94792388EE92E00E94792313
:1036700087ED92E00E94792387EC92E00E94792303
:103680008BEB92E00E94792381EB92E00E947923F8
:103690000E94F111A5C4109204010E94C20F8881FA
:1036A000998192FF6BC78E8D9F8DA8A1B9A1892B9F
:1036B0008A2B8B2B09F462C740919203509193039C
:1036C00060919403709195038DEA92E00E944B24DF
:1036D00040919603509197036091980370919903DC
:1036E00088EA92E00E944B2440919A0350919B03F8
:1036F00060919C0370919D0383EA92E0DF91CF91EA
:103700001F910F91FF90EF90DF90CF90BF90AF90FF
:103710009F908F907F906F905F904F900C94592462
:10372000109204010E94B60F0E946D350E946D3503
:10373000DF91CF911F910F91FF90EF90DF90CF908D
:10374000BF90AF909F908F907F906F905F904F90C1
:103750000C9436358081918188279670811596402A
:1037600039F4FE01EC5AFF4F8081882309F465C6C5
:1037700010E08A819B8191FF14C060E070E08AE9CB
:1037800092E00E947E2460917601709177018FE92A
:103790009CE00E947E248DE00E9499698AE00E944C
:1037A0009969112309F4EAC6609176017091770155
:1037B00086E291E00E948297DF91CF911F910F9155
:1037C000FF90EF90DF90CF90BF90AF909F908F9041
:1037D0007F906F905F904F900C948F32E0917802C1
:1037E000F091790290812881398131FF06C0FE0174
:1037F000EC5AFF4F8081882311F0892F01C080E0AF
:103800002A8122FF05C0CEA4DFA4E8A8F9A803C03E
:10381000C12CD12C760123FF04C0CAA8DBA8ECA8D8
:10382000FDA8C82FD0E02CE7829FF0011124E258B8
:10383000FE4FC082D182E282F382891306C080915A
:10384000D6029091D7020E94331120E030E0A90106
:10385000C701B6010E949690BE01811103C08EE699
:1038600092E020CC87E492E00E947E2422E0B7011F
:10387000A60182E492E08AC1808183FF0CC0428568
:103880005385648575854093B5015093B601609367
:10389000B7017093B80184FF0CC04E855F856889BD
:1038A00079894093B9015093BA016093BB01709339
:1038B000BC0185FF0CC04A895B896C897D89409376
:1038C000BD015093BE016093BF017093C00186FF9C
:1038D0000CC08E899F89A88DB98D8093C10190936A
:1038E000C201A093C301B093C401DF91CF911F9196
:1038F0000F91FF90EF90DF90CF90BF90AF909F908F
:103900008F907F906F905F904F900C94BB4D808113
:1039100083FF0CC042855385648575854093A5015E
:103920005093A6016093A7017093A80184FF0CC077
:103930004E855F85688979894093A9015093AA01D2
:103940006093AB017093AC0185FF0CC04A895B8921
:103950006C897D894093AD015093AE016093AF01B6
:103960007093B00186FFC1CF8E899F89A88DB98DD4
:103970008093B1019093B201A093B301B093B401CD
:10398000B4CF0081118103FF12C020E030E040E796
:1039900052E462857385848595850E949D9060932D
:1039A000D1017093D2018093D3019093D40104FF8D
:1039B00012C020E030E040E752E46E857F858889C0
:1039C00099890E949D906093D5017093D601809350
:1039D000D7019093D80105FF12C020E030E040E706
:1039E00052E46A897B898C899D890E949D906093AD
:1039F000D9017093DA018093DB019093DC0106FF1B
:103A000012C020E030E040E752E46E897F89888D63
:103A1000998D0E949D906093DD017093DE018093EB
:103A2000DF019093E00112FF0EC081E04E8D5F8DAB
:103A300068A179A14F3F51056105710509F480E046
:103A4000809381029BC51092810298C5E091780213
:103A5000F09179022881398132FD02C0B9960BC0FC
:103A60008E8D9F8DA8A1B9A1892B8A2B8B2B09F054
:103A700085C5E0E3F1E023FF08C08A859B85AC851E
:103A8000BD8580A391A3A2A3B3A324FF08C08E8504
:103A90009F85A889B98984A395A3A6A3B7A325FF69
:103AA00008C08A899B89AC89BD8980A791A7A2A7F4
:103AB000B3A7CF01DF91CF911F910F91FF90EF90AE
:103AC000DF90CF90BF90AF909F908F907F906F903E
:103AD0005F904F900C94B53610920401DF91CF9116
:103AE0001F910F91FF90EF90DF90CF90BF90AF901C
:103AF0009F908F907F906F905F904F900C94E931E2
:103B0000888183FF0CC04A855B856C857D854093E9
:103B1000D2025093D3026093D4027093D50286FFF1
:103B20000FC0E0917802F09179028E899F89A88D6B
:103B3000B98D838F948FA58FB68F80810E94FC36BC
:103B4000888185FF0CC08A899B89AC89BD89809357
:103B5000CE029093CF02A093D002B093D1024091B5
:103B6000D2025091D3026091D4027091D50222E02A
:103B700082EF9BE09FD74091CE025091CF0260919F
:103B8000D0027091D10222E08AEE9BE0DF91CF91CA
:103B90001F910F91FF90EF90DF90CF90BF90AF906B
:103BA0009F908F907F906F905F904F9056C78881C5
:103BB000998192FFE3C40E8D1F8D28A139A161E088
:103BC000011511052105310509F460E080915B03C1
:103BD000012B022B032B11F0826001C08D7F80939B
:103BE0005B0370E088ED93E05DCA0881198111FFE5
:103BF00006C0FE01EC5AFF4F80818111BFC403FF54
:103C000018C02091E1013091E2014091E30150910F
:103C1000E4016A857B858C859D850E943B930E948B
:103C20000591609308017093090180930A019093B4
:103C30000B0104FF18C02091E5013091E60140918D
:103C4000E7015091E8016E857F85888999890E94F6
:103C50003B930E94059160930C0170930D0180933A
:103C60000E0190930F0105FF18C02091E9013091DA
:103C7000EA014091EB015091EC016A897B898C89C2
:103C80009D890E943B930E9405916093100170935F
:103C90001101809312019093130112FF6FC48E8D56
:103CA0009F8DA8A1B9A1181619061A061B060CF0BB
:103CB00065C480E0DF91CF911F910F91FF90EF904D
:103CC000DF90CF90BF90AF909F908F907F906F903C
:103CD0005F904F900C94AE298881998192FF05C026
:103CE0008E8D9F8DA8A1B9A104C084E690E0A0E0CC
:103CF000B0E0DF91CF911F910F91FF90EF90DF9097
:103D0000CF90BF90AF909F908F907F906F905F907B
:103D10004F900C94E5108881998192FF05C08E8D9B
:103D20009F8DA8A1B9A104C084E690E0A0E0B0E016
:103D3000DF91CF911F910F91FF90EF90DF90CF9087
:103D4000BF90AF909F908F907F906F905F904F90BB
:103D50000C943311888199819C0122273C70211594
:103D60003C4009F00BC479C38DE092E050C18881DA
:103D700085FF04C4CA88DB88EC88FD8820E030E039
:103D8000A901C701B6010E949992260137011816B0
:103D900024F077FA709477F870948091A60390914C
:103DA000A7038090E9019090EA01A090EB01B09008
:103DB000EC01092E000CAA0BBB0B8C01DA2FCB2FC8
:103DC000B7FF07C0B095A095909581959F4FAF4FD5
:103DD000BF4F2CEB3FE740E050E0281B390B4A0B6C
:103DE0005B0BCA01B9010E943891A50194010E94A0
:103DF0003B939B01AC01C301B2010E94969087FFE7
:103E0000BDC3B8018D2F9C2F0E9438912B013C011E
:103E1000A5019401C701B6010E943B939B01AC012F
:103E2000C301B2010E94D08F0E9405917093A70335
:103E30006093A603A3C32881398180915C0332FF7C
:103E400036C34E8D5F8D68A179A1452B462B472B3C
:103E500009F02DC348C3E880F980F2FE03C0AE8CA0
:103E6000BF8C03C0B6E9AB2EB12CDA80D2FE08C0FD
:103E70006EA57FA588A999A90E9405918B0102C012
:103E800005E010E0D4FE08C06EA97FA988AD99AD09
:103E90000E9405916B0102C0C12CD12CC701A3E087
:103EA00096958795AA95E1F7382F3170E32EB501E5
:103EB000BB0C880B990B0E943891AB01BC0120E030
:103EC00080910501909106010E94863E57C388812A
:103ED000998192FF1CC081E04E8D5F8D68A179A110
:103EE000452B462B472B09F480E0DF91CF911F91A2
:103EF0000F91FF90EF90DF90CF90BF90AF909F9089
:103F00008F907F906F905F904F900C946E60DF91D8
:103F1000CF911F910F91FF90EF90DF90CF90BF90C6
:103F2000AF909F908F907F906F905F904F900C9488
:103F30006F60DF91CF911F910F91FF90EF90DF9015
:103F4000CF90BF90AF909F908F907F906F905F9039
:103F50004F900C94B60FDF91CF911F910F91FF906E
:103F6000EF90DF90CF90BF90AF909F908F907F9019
:103F70006F905F904F900C94495A8881998190FF7F
:103F800005C0EA8CFB8C0C8D1D8D08C0E090DA0218
:103F9000F090DB020091DC021091DD029C0146E012
:103FA000369527954A95E1F72170AC0165E0569565
:103FB00047956A95E1F74170BC01E4E07695679515
:103FC000EA95E1F76170F3E096958795FA95E1F748
:103FD00081700E94A05AD2C20E94B60F109257035D
:103FE000DF91CF911F910F91FF90EF90DF90CF90D5
:103FF000BF90AF909F908F907F906F905F904F9009
:104000000C944C4D80E00E94AE2980E09AE0DF9154
:10401000CF911F910F91FF90EF90DF90CF90BF90C5
:10402000AF909F908F907F906F905F904F9075C3EF
:1040300081E00E949D2DE0917802F09179028081CB
:104040000E94FC368EED99E0E2CFDF91CF911F9177
:104050000F91FF90EF90DF90CF90BF90AF909F9027
:104060008F907F906F905F904F90B7C78A819B81B0
:1040700091FF0DC0FE01E65BFF4F6081718182817F
:1040800093810E94059170939E0160939D014881E8
:10409000598120915A03809158039091590352FFFE
:1040A0000CC03E8D332311F0286001C0277F209380
:1040B0005A03332329F0806104C0277F20935A03D9
:1040C0008F7E909359038093580380915803909169
:1040D000590380C0CE5ADF4F6881798144E150E0B6
:1040E0008AE393E00E94329710924E0347C2888180
:1040F00083FF0CC08A859B85AC85BD858093360384
:1041000090933703A0933803B0933903C0903603DC
:10411000D0903703E0903803F090390320E030E08E
:1041200048EC52E4C701B6010E94999218166CF44B
:1041300080E090E0A8ECB2E48093360390933703DC
:10414000A0933803B093390311C020E030E0A901F7
:10415000C701B6010E94969087FF08C010923603EF
:104160001092370310923803109239038A819B8191
:1041700091FF04C2C65BDF4F688179818A819B8190
:104180000E9405917093500360934F03F7C12881FB
:10419000398132FF0FC04E8D5F8D68A179A180916A
:1041A0005A03452B462B472B11F0806201C08F7DAF
:1041B00080935A0333FFE2C14AA15BA16CA17DA1A8
:1041C0008091580390915903452B462B472B11F0B2
:1041D000846001C08B7F9093590380935803CEC1B4
:1041E0008881998192FF82C14E8D5F8D68A179A1EE
:1041F00014161506160617060CF497C177C18881A8
:10420000998192FFBBC16E8D89E690E00E946F9705
:10421000CDD6682F88E690E0DF91CF911F910F9166
:10422000FF90EF90DF90CF90BF90AF909F908F90D6
:104230007F906F905F904F900C946F9788819981D9
:1042400092FF14C089EF91E0DF91CF911F910F9100
:10425000FF90EF90DF90CF90BF90AF909F908F90A6
:104260007F906F905F904F900C947C68DF91CF911E
:104270001F910F91FF90EF90DF90CF90BF90AF9084
:104280009F908F907F906F905F904F900C94F2680A
:104290008091A40182FF72C11092040186EC9CE01F
:1042A00017D2CE01DF91CF911F910F91FF90EF9028
:1042B000DF90CF90BF90AF909F908F907F906F9046
:1042C0005F904F900C94C7690E94B60F5BC8232B78
:1042D00069F011E020E030E0A9016A8D7B8D8C8DC2
:1042E0009D8D0E94999218160CF010E0E0917802D2
:1042F000F0917902D0806E8D7F8D88A199A10E9466
:1043000038919B01AC01F2FC2CC022C0232B69F038
:1043100011E020E030E0A9016A8D7B8D8C8D9D8DB0
:104320000E94999218160CF010E0E0917802F0913A
:104330007902D080E159FF4F60817181072E000C16
:10434000880B990B0E9438919B01AC01EF2849F42E
:1043500060E070E0CB010E94D08F00E0212F4D2D56
:104360006AC9C25BDF4F688179818A819B81F3CF03
:10437000232B69F011E020E030E0A9016A8D7B8DEC
:104380008C8D9D8D0E94999218160CF010E06E8D08
:104390007F8D88A199A10E9438919B01AC01F2FC0C
:1043A0001EC024C0232B69F011E020E030E0A901F9
:1043B0006A8D7B8D8C8D9D8D0E94999218160CF0C4
:1043C00010E06091760170917701072E000C880B48
:1043D000990B0E9438919B01AC01EF2839F0C25B28
:1043E000DF4F688179818A819B8103C060E070E042
:1043F000CB010E94D08F00E0212F40E01CC992FF2A
:1044000004C08E8D9F8D60E006C08FEF90E0FBCFE3
:1044100060E080E090E0DF91CF911F910F91FF90DD
:10442000EF90DF90CF90BF90AF909F908F907F9054
:104430006F905F904F900C94AB118E8D9F8D11E01B
:1044400020917601309177012817390709F410E09F
:1044500090937701809376018CC911E04E8D5F8D2A
:1044600068A179A1452B462B472B09F410E083FF67
:1044700011C020E030E0A9016A857B858C859D858F
:104480000E949690811102C060E001C062E08AA1A2
:104490000E948E0F81E00E949C0F83E090E00E94BA
:1044A000316B8AA10E94880F8113F4CF67C08068A6
:1044B00091E080935C03992319F08FEF93E002C0A1
:1044C00085EE93E0DF91CF911F910F91FF90EF90D8
:1044D000DF90CF90BF90AF909F908F907F906F9024
:1044E0005F904F9004C18F7790E0E3CF93FF0AC0B5
:1044F00081E04AA15BA16CA17DA14130510561051C
:10450000710509F480E0DF91CF911F910F91FF9029
:10451000EF90DF90CF90BF90AF909F908F907F9063
:104520006F905F904F900C9450368A8187FF0FC038
:10453000FE01EE5BFF4FD1E020E030E0A901608199
:104540007181828193810E949690811101C0D0E097
:104550008D2FDF91CF911F910F91FF90EF90DF9002
:10456000CF90BF90AF909F908F907F906F905F9013
:104570004F900C94A83C8F7E0C94AD1ADF91CF9194
:104580001F910F91FF90EF90DF90CF90BF90AF9071
:104590009F908F907F906F905F904F9008950F93B2
:1045A0001F93CF93DF93EC010091F1011091F20181
:1045B000FC01EA5AFF4F808191819093F201809330
:1045C000F10181E0809304012091A4018881998107
:1045D00024FF09C082FD26C081FF05C04E815F8196
:1045E0004F365105F9F482FF04C0CE010E946614D3
:1045F00023C081FF04C0CE010E944C161DC091FF54
:1046000008C00E94B60FCC5ADF4F88810E94FC364A
:1046100013C022FF11C086EC9CE05AD0CE010E944C
:10462000C7690AC00E94900F60934C0C70934D0CA8
:1046300080934E0C90934F0C1093F2010093F10174
:10464000DF91CF911F910F910895CF93DF938091C8
:104650005B0380FD0CC00E94AB6C0E941A64EC01ED
:10466000009749F09CDFCE010E94106B04C082E0ED
:1046700090E00E94316BDF91CF910C94E0590C9443
:10468000B24A0E949D4A2091020130910301821793
:10469000930724F49093030180930201089560919D
:1046A000020170910301809100019091010168174E
:1046B00079073CF470930101609300018CEB9CE05E
:1046C000CEC008958DE00E9499698AE00C949969A2
:1046D000CF93DF93FC018491EF012196882321F091
:1046E0000E949969FE01F7CFDF91CF910895F0DF25
:1046F000E9CFCF93DF93EC0189E99DE0E9DFCE01BB
:10470000DF91CF91F4CFCF93DF93EC018EE494E06F
:10471000DFDFCE01DF91CF91EACFCF93DF93EC01C2
:104720008CEA9DE0D5DFCE01DF91CF91E0CFCF9332
:10473000DF93EC0182EB9DE0CBDFCE01DF91CF91E7
:10474000D6CFCF93DF93EC018991882319F00E9493
:104750009969FACFDF91CF9108958F929F92AF928E
:10476000BF92CF92DF92EF92FF920F931F93CF935E
:10477000DF93CDB7DEB72B970FB6F894DEBF0FBE31
:10478000CDBF6B017C011B868E01055F1F4F8AE048
:10479000882E912CA12CB12CC701B601A501940142
:1047A0000E94289480E38C0DC82E9AE0299FC0189F
:1047B0001124F801C2928F0169017A01C114D10458
:1047C000E104F10449F7CF01BCDF2B960FB6F89452
:1047D000DEBF0FBECDBFDF91CF911F910F91FF9034
:1047E000EF90DF90CF90BF90AF909F908F90089503
:1047F000CF92DF92EF92FF926A017B0169DFC701DE
:10480000B601FF90EF90DF90CF90A7CFCF92DF92CD
:10481000EF92FF926A017B015BDFC701B6019DDF6A
:10482000FF90EF90DF90CF904DCFCF92DF92EF923D
:10483000FF926B017C0197FF0BC08DE20E9499698A
:10484000F094E094D094C094C11CD11CE11CF11CE4
:10485000C701B601FF90EF90DF90CF907ECFCF934E
:10486000DF93EB0135DFBE01DD0F880B990BDDDF38
:10487000DF91CF9127CF0F931F93CF93DF93EC015D
:104880008B018EE494E024DFB801CE01DF91CF915B
:104890001F910F91E4CFCF92DF92EF92FF926A01C6
:1048A0007B0116DFC701B601FF90EF90DF90CF903C
:1048B000BCCFCF92DF92EF92FF926A017B0108DFBB
:1048C000C701B601B2DFFF90EF90DF90CF90FACE34
:1048D000CF92DF92EF92FF92CF93DF93EC016A01C8
:1048E0007B018EE494E0F4DEB701A601CE01DF91F6
:1048F000CF91FF90EF90DF90CF90DBCFCF93DF93FE
:10490000EB01E6DEBE01DD0F880B990BDF91CF9145
:104910008CCF8F929F92AF92BF92CF92DF92EF9205
:10492000FF92CF93DF936B017C01D42F9B01AC01ED
:104930000E94E993882319F08DEB9DE01AC046018F
:104940005701E894B7F82FEF3FEF4FE75FE7C50156
:10495000B4010E94E993811117C02FEF3FEF4FE799
:104960005FE7C501B4010E94969018166CF489EBBC
:104970009DE0DF91CF91FF90EF90DF90CF90BF90BF
:10498000AF909F908F90A4CE20E030E0A901C701A6
:10499000B6010E94969087FF07C08DE20E94996938
:1049A000F7FAF094F7F8F094C0E060E070E080E08F
:1049B0009FE3CD1741F020E030E040E251E40E9457
:1049C0009D90CF5FF6CF9B01AC01C701B6010E945D
:1049D000D08F6B017C010E940A914B015C01BDDE0E
:1049E000CC2381F1C501B4010E9436919B01AC0139
:1049F000C701B6010E94CF8F6B017C018EE20E943D
:104A0000996920E030E040E251E4C701B6010E941C
:104A10003B934B015C010E9405916B01770FEE08FF
:104A2000FF08C701B60101DFC701B6010E94389136
:104A30009B01AC01C501B4010E94CF8F6B017C01C9
:104A4000C150F9F6DF91CF91FF90EF90DF90CF90BA
:104A5000BF90AF909F908F900895CF92DF92EF928A
:104A6000FF92CF936A017B01C22F32DE4C2FC70128
:104A7000B6014FDFCF91FF90EF90DF90CF9022CE25
:104A8000CF92DF92EF92FF921F93CF93DF93EC01CF
:104A90006A017B01122F8EE494E01ADE212FB70108
:104AA000A601CE01DF91CF911F91FF90EF90DF9093
:104AB000CF90D3CFCF92DF92EF92FF92CF936A0144
:104AC0007B01C22F05DE4C2FC701B601CF91FF90AD
:104AD000EF90DF90CF901DCFCF93DF9300D000D029
:104AE000CDB7DEB744E050E0BC01CE0101960E9494
:104AF000449769817A818B819C810F900F900F90F0
:104B00000F90DF91CF9108954F925F926F927F92B5
:104B10008F929F92AF92BF92CF92DF92EF92FF92CD
:104B2000CF93DF93CDB7DEB7C458D1090FB6F89451
:104B3000DEBF0FBECDBF412C512C80E2682E82E437
:104B4000782E49825A826B827C8244E050E068E28F
:104B500073E0CE0101960E94669780E090E0A0E0AD
:104B6000B0E48D839E83AF83B88744E050E06CE26D
:104B700073E0CE0105960E94669780E090E0A6E182
:104B8000B3E489879A87AB87BC8744E050E068E448
:104B900073E0CE0109960E9466971D861E861F86C9
:104BA000188A44E050E060E273E0CE010D960E9466
:104BB0006697198A1A8A1B8A1C8A44E050E064E2CC
:104BC00073E0CE0141960E9466971D8A1E8A1F8A55
:104BD000188E44E050E060E074E0CE0145960E94FB
:104BE0006697C12CD12C90EAE92E91E4F92EC98E5A
:104BF000DA8EEB8EFC8E44E050E060E373E0CE0191
:104C000049960E946697CD8EDE8EEF8EF8A244E024
:104C100050E064E373E0CE014D960E946697812CCC
:104C2000912C20E2A22E23E4B22E89A29AA2ABA25A
:104C3000BCA244E050E068E373E0CE0181960E949C
:104C40006697CDA2DEA2EFA2F8A644E050E06CE3A6
:104C500073E0CE0185960E946697C9A6DAA6EBA6F8
:104C6000FCA644E050E060E473E0CE0189960E9427
:104C700066978DA69EA6AFA6B8AA44E050E064E46D
:104C800073E0CE018D960E94669719AA1AAA1BAAF4
:104C90001CAA44E050E060ED73E0CE01C1960E9492
:104CA00066971DAA1EAA1FAA18AE44E050E064ED44
:104CB00073E0CE01C5960E94669719AE1AAE1BAE80
:104CC0001CAE44E050E068ED73E0CE01C9960E944E
:104CD0006697812C912C30E2A32E31E4B32E2196DD
:104CE0008CAE9DAEAEAEBFAE219744E050E061EA1F
:104CF00073E0CE01CD960E94669780E094E0ECDEF2
:104D000060932E0370932F038093300390933103AD
:104D100025961CAE1DAE1EAE1FAE259744E050E09A
:104D200060ED73E0CE018F5B9F4F0E9466972996DE
:104D30001CAE1DAE1EAE1FAE299744E050E064EDE0
:104D400073E0CE018B5B9F4F0E9466972D961CAE41
:104D50001DAE1EAE1FAE2D9744E050E068ED73E02F
:104D6000CE01875B9F4F0E94669760E08CED93E0D9
:104D70000E946F9780E090E0A0E4B0E461968CAF71
:104D80009DAFAEAFBFAF619744E050E060EE73E01F
:104D9000CE01835B9F4F0E94669780E090E0A0E584
:104DA000B1E465968CAF9DAFAEAFBFAF659744E001
:104DB00050E064EE73E0CE018F5A9F4F0E946697D9
:104DC00069964CAE5DAE6EAE7FAE699744E050E042
:104DD00068EE73E0CE018B5A9F4F0E9466976D96E6
:104DE0001CAE1DAE1EAE1FAE6D9744E050E06CEEE3
:104DF00073E0CE01875A9F4F0E946697A1961CAE22
:104E00001DAE1EAE1FAEA19744E050E060EF73E010
:104E1000CE01835A9F4F0E946697A5961CAE1DAE89
:104E20001EAE1FAEA59744E050E064EF73E0CE01E4
:104E30008F599F4F0E946697A996CCAEDDAEEEAE1D
:104E4000FFAEA99744E050E068EF73E0CE018B59C4
:104E50009F4F0E94669760E08CEF93E00E946F97EF
:104E6000AD961CAE1DAE1EAE1FAEAD9744E050E039
:104E70006CE074E0CE0187599F4F0E946697E196DF
:104E80001CAE1DAE1EAE1FAEE19744E050E060E1E7
:104E900074E0CE0183599F4F0E946697E5961CAE41
:104EA0001DAE1EAE1FAEE59744E050E064E174E035
:104EB000CE018F589F4F0E94669780E090E0A8EC4B
:104EC000B2E4E9968CAF9DAFAEAFBFAFE99744E0D7
:104ED00050E068E074E0CE018B589F4F0E946697C7
:104EE000ED961CAE1DAE1EAE1FAEED9744E050E039
:104EF00060E274E0CE0187589F4F0E946697C358C6
:104F0000DF4F88829982AA82BB82CD57D04044E08D
:104F100050E064E274E0CE0183589F4F0E94669790
:104F2000CF57DF4F88829982AA82BB82C158D04076
:104F300044E050E068E274E0CE018F579F4F0E943A
:104F40006697CC57DF4F0FB6F894DEBF0FBECDBFCC
:104F5000DF91CF91FF90EF90DF90CF90BF90AF9017
:104F60009F908F907F906F905F904F90089580E911
:104F700090EDA3E0B0E080930B0290930C02A0931D
:104F80000D02B0930E0280E090E00E9454978130B1
:104F900061F48BE490E00E945C9760930B02709345
:104FA0000C0280930D0290930E0208951F93CF93ED
:104FB000DF9310E0C0E0D0E0C836D10521F0CE018B
:104FC0000E945497180F2196C11588E0D807A1F7C1
:104FD000812FDF91CF911F910895CF92DF92EF92B1
:104FE000FF920F931F9390DDE1DF182F88E690E08A
:104FF0000E945497811729F0612F88E690E00E9463
:105000006F9780E990EDA3E0B0E080930B0290935E
:105010000C02A0930D02B0930E021092480C109255
:10502000490C10924A0C10924B0C80EC94EDA1E0CC
:10503000B0E080930F0290931002A0931102B093FE
:10504000120286E696E6A8E9B2E48093E101909325
:10505000E201A093E301B093E4018FE892ECA1EBAD
:10506000B2E48093E5019093E601A093E701B09349
:10507000E80180E090E0A8E4B5E48093E901909332
:10508000EA01A093EB01B093EC0180E090E0A0E88E
:10509000BFE38093ED019093EE01A093EF01B093F5
:1050A000F00140E050E06AE775E44093D10150938D
:1050B000D2016093D3017093D4014093D5015093F2
:1050C000D6016093D7017093D80180E090E0A0EF03
:1050D000B1E48093D9019093DA01A093DB01B093FE
:1050E000DC018093C5019093C601A093C701B093E2
:1050F000C8018093C9019093CA01A093CB01B093DA
:10510000CC0100E010E020E830E40093CD011093E2
:10511000CE012093CF013093D00100E010E020EACF
:1051200031E40093D2021093D3022093D40230933F
:10513000D5020AE919E929E93EE30093CE0210936A
:10514000CF022093D0023093D10200E010E028E497
:1051500033E40093B5011093B6012093B701309367
:10516000B8010093B9011093BA012093BB013093A9
:10517000BC0100E010E028EC32E40093BD01109384
:10518000BE012093BF013093C001C12CE0E8DE2EA8
:10519000EBE3EE2EE5E4FE2EC092A501D092A6012F
:1051A000E092A701F092A801C092A901D092AA01B1
:1051B000E092AB01F092AC010093AD011093AE010F
:1051C0002093AF013093B00100E010E026E133E41A
:1051D0000093F2021093F3022093F4023093F5024D
:1051E0000093EA021093EB022093EC023093ED025D
:1051F0000093E2021093E3022093E4023093E5026D
:105200001092EE021092EF021092F0021092F10250
:105210001092E6021092E7021092E8021092E90260
:105220001092DE021092DF021092E0021092E10270
:1052300000E010E022E033E4009314011093150124
:10524000209316013093170180931A0190931B014C
:10525000A0931C01B0931D0180E090E0A0E2B1E4B6
:105260008093220190932301A0932401B093250100
:1052700040931E0150931F01609320017093210100
:1052800081E0809333018EEB90E0909377018093DF
:10529000760182E880934E018CE380934F018CEE7F
:1052A00091E5A8E1B0E48093500190935101A0935F
:1052B0005201B09353018AE097EDA3E2BCE38093DF
:1052C000540190935501A0935601B09357018CE57A
:1052D0009FE8ABE7B2E48093580190935901A09303
:1052E0005A01B0935B0186E480935C0110920C013B
:1052F00010920D0110920E0110920F0110920801F0
:105300001092090110920A0110920B0181E090E0C5
:1053100090932B0180932A0186E990E090932D01D0
:1053200080932C0110922F0110922E018FEF809309
:105330007C01EADB0E94BB4DE0917802F09179029A
:1053400080810E94FC360E9490368DEB99E01F917F
:105350000F91FF90EF90DF90CF90DFC91F93CF9315
:10536000DF93CDB7DEB7CC59D1090FB6F894DEBFC5
:105370000FBECDBF182F40910B0250910C026091CF
:105380000D0270910E028BE490E00E947D97409197
:10539000480C5091490C60914A0C70914B0C8FE471
:1053A00090E00E947D9740910F0250911002609111
:1053B00011027091120283E590E00E947D97809126
:1053C000E1019091E201A091E301B091E40189A78C
:1053D0009AA7ABA7BCA744E050E063E070E0CE0121
:1053E00089960E9466978091E5019091E601A091CF
:1053F000E701B091E8018DA79EA7AFA7B8AB44E045
:1054000050E067E070E0CE018D960E946697809133
:10541000E9019091EA01A091EB01B091EC0189AB17
:105420009AABABABBCAB44E050E06BE070E0CE01BC
:10543000C1960E9466978091D1019091D201A0916E
:10544000D301B091D4018DAB9EABAFABB8AF44E00C
:1054500050E06FE070E0CE01C5960E9466978091A3
:10546000D5019091D601A091D701B091D80189AF13
:105470009AAFABAFBCAF44E050E063E170E0CE0167
:10548000C9960E9466978091D9019091DA01A09106
:10549000DB01B091DC0121968CAF9DAFAEAFBFAF09
:1054A000219744E050E067E170E0CE01CD960E9484
:1054B00066978091C5019091C601A091C701B091F6
:1054C000C80125968CAF9DAFAEAFBFAF259744E026
:1054D00050E06BE170E0CE018F5B9F4F0E946697BA
:1054E0008091C9019091CA01A091CB01B091CC01EA
:1054F00029968CAF9DAFAEAFBFAF299744E050E087
:105500006FE170E0CE018B5B9F4F0E9466978091A8
:10551000CD019091CE01A091CF01B091D0012D96F7
:105520008CAF9DAFAEAFBFAF2D9744E050E063E2CC
:1055300070E0CE01875B9F4F0E9466978091D202F8
:105540009091D302A091D402B091D50261968CAF14
:105550009DAFAEAFBFAF619744E050E067E270E04F
:10556000CE01835B9F4F0E9466978091CE029091FF
:10557000CF02A091D002B091D10265968CAF9DAFC1
:10558000AEAFBFAF659744E050E06FE270E0CE0190
:105590008F5A9F4F0E9466978091B5019091B601F6
:1055A000A091B701B091B80169968CAF9DAFAEAF35
:1055B000BFAF699744E050E063E370E0CE018B5ADF
:1055C0009F4F0E9466978091B9019091BA01A09176
:1055D000BB01B091BC016D968CAF9DAFAEAFBFAFBC
:1055E0006D9744E050E067E370E0CE01875A9F4F2B
:1055F0000E9466978091BD019091BE01A091BF016C
:10560000B091C001A1968CAF9DAFAEAFBFAFA197D7
:1056100044E050E06BE370E0CE01835A9F4F0E945C
:1056200066978091A5019091A601A091A701B091E4
:10563000A801A5968CAF9DAFAEAFBFAFA59744E0D4
:1056400050E06FE370E0CE018F599F4F0E94669744
:105650008091A9019091AA01A091AB01B091AC01F8
:10566000A9968CAF9DAFAEAFBFAFA99744E050E015
:1056700063E470E0CE018B599F4F0E946697809142
:10568000AD019091AE01A091AF01B091B001AD9686
:105690008CAF9DAFAEAFBFAFAD9744E050E067E4D5
:1056A00070E0CE0187599F4F0E94669760E08AE6BE
:1056B00090E00E946F976FEF8BE690E00E946F97EB
:1056C00060E58CE790E00E946F9780E090E0A4E4B2
:1056D000B3E4E1968CAF9DAFAEAFBFAFE19744E0CE
:1056E00050E06CE670E0CE0183599F4F0E946697B0
:1056F00080E090E0A4E0B2E4E5968CAF9DAFAEAF61
:10570000BFAFE59744E050E060E770E0CE018F580E
:105710009F4F0E94669780E090E0A1E9B3E4E9968C
:105720008CAF9DAFAEAFBFAFE99744E050E064E708
:1057300070E0CE018B589F4F0E9466976FEF88E70D
:1057400090E00E946F978091EE029091EF02A091FD
:10575000F002B091F102ED968CAF9DAFAEAFBFAF4E
:10576000ED9744E050E065E870E0CE0187589F4F28
:105770000E9466978091E6029091E702A091E8026C
:10578000B091E902C358DF4F88839983AA83BB8312
:10579000CD57D04044E050E069E870E0CE01835836
:1057A0009F4F0E9466978091DE029091DF02A09148
:1057B000E002B091E102CF57DF4F88839983AA833B
:1057C000BB83C158D04044E050E06DE870E0CE01AA
:1057D0008F579F4F0E9466978091F2029091F3023B
:1057E000A091F402B091F502CB57DF4F88839983E3
:1057F000AA83BB83C558D04044E050E061E970E023
:10580000CE018B579F4F0E9466978091EA0290913C
:10581000EB02A091EC02B091ED02C757DF4F8883F5
:105820009983AA83BB83C958D04044E050E065E91E
:1058300070E0CE0187579F4F0E9466978091E202E9
:105840009091E302A091E402B091E502C357DF4FCB
:1058500088839983AA83BB83CD58D04044E050E02D
:1058600069E970E0CE0183579F4F0E946697CF563B
:10587000DF4F188219821A821B82C159D04044E03E
:1058800050E06DE970E0CE018F569F4F0E94669701
:10589000CB56DF4F188219821A821B82C559D0401D
:1058A00044E050E061EA70E0CE018B569F4F0E94C9
:1058B0006697C756DF4F188219821A821B82C95910
:1058C000D04044E050E065EA70E0CE0187569F4F3B
:1058D0000E9466978091140190911501A091160184
:1058E000B09117018D839E83AF83B88744E050E069
:1058F00068EC70E0CE0105960E94669780911A01CF
:1059000090911B01A0911C01B0911D0189879A877C
:10591000AB87BC8744E050E06CEC70E0CE010996A8
:105920000E9466978091220190912301A091240109
:10593000B09125018D879E87AF87B88B44E050E0FA
:1059400060ED70E0CE010D960E94669780911E0179
:1059500090911F01A0912001B0912101898B9A8B18
:10596000AB8BBC8B44E050E064ED70E0CE0141961F
:105970000E9466976091330188ED90E00E946F97D6
:10598000609176017091770186E291E00E948297A2
:1059900060914E0189ED90E00E946F9760914F01F8
:1059A00085EF90E00E946F97809150019091510196
:1059B000A0915201B09153018D8B9E8BAF8BB88F0C
:1059C00044E050E06AED70E0CE0145960E94669793
:1059D0008091540190915501A0915601B0915701C9
:1059E000898F9A8FAB8FBC8F44E050E06EED70E0F2
:1059F000CE0149960E946697809158019091590175
:105A0000A0915A01B0915B018D8F9E8FAF8FB8A38B
:105A100044E050E062EE70E0CE014D960E94669741
:105A200060915C0186EE90E00E946F9740910801C2
:105A30005091090160910A0170910B0187EE90E08D
:105A40000E947D9740910C0150910D0160910E01D3
:105A500070910F018BEE90E00E947D9740911001B4
:105A600050911101609112017091130182E291E055
:105A70000E947D9760912A0170912B018FEE90E03A
:105A80000E94829760912C0170912D018AEF90E025
:105A90000E94829760912E0170912F018CEF90E00F
:105AA0000E94829760917C018EEF90E00E946F9738
:105AB00019A21AA21BA21CA244E050E061EF70E000
:105AC000CE0181960E9466971DA21EA21FA218A653
:105AD00044E050E066EF70E0CE0185960E94669744
